:020000040800F2
:10000000180D0020CD010008DD460008753C0008F1
:10001000D9460008310300086557000800000000B9
:10002000000000000000000000000000A5480008DB
:10003000950300080000000065480008FD4800081E
:10004000E7010008E7010008E7010008E7010008F0
:10005000E7010008E7010008E7010008E7010008E0
:10006000E7010008E7010008E7010008E7010008D0
:10007000E7010008E7010008E70100083503000870
:10008000E7010008E7010008E7010008E7010008B0
:10009000E7010008E7010008E7010008E7010008A0
:1000A000E7010008E7010008E7010008E701000890
:1000B000E7010008E7010008E7010008E701000880
:1000C000E7010008E7010008E7010008E701000870
:1000D000E70100089D5600084557000855570008DD
:1000E000E7010008E7010008E7010008E701000850
:1000F000E7010008E7010008E7010008E701000840
:10010000E7010008E701000875490008E701000859
:10011000A94F0008E7010008854900089549000833
:10012000E7010008E7010008E7010008E70100080F
:1001300000F002F800F03AF80AA090E8000C8244BF
:100140008344AAF10107DA4501D100F02FF8AFF29C
:10015000090EBAE80F0013F0010F18BFFB1A43F0A5
:10016000010318471092000030920000103A24BF9B
:1001700078C878C1FAD8520724BF30C830C144BF0C
:1001800004680C607047000000230024002500264E
:10019000103A28BF78C1FBD8520728BF30C148BFEA
:1001A0000B6070471FB51FBD10B510BD00F08AF879
:1001B0001146FFF7F7FF06F0DDFB00F0A8F803B4E7
:1001C000FFF7F2FF03BC00F0ABF8000009488047DE
:1001D00009480047FEE7FEE7FEE7FEE7FEE7FEE729
:1001E000FEE7FEE7FEE7FEE704480549054A064B41
:1001F000704700007149000831010008180700200D
:10020000180D0020180900201809002010B5431C03
:1002100002E010F8011B71B18107FAD14FF00132F1
:1002200002C88C1A8C4314EAC211F9D0C01A0A060B
:1002300003D0C01E10BDC01A10BD0A0401D0801E1C
:1002400010BD0902FCD0401E10BD4FF0000200B5E9
:10025000134694469646203922BFA0E80C50A0E8E9
:100260000C50B1F12001BFF4F7AF090728BFA0E897
:100270000C5048BF0CC05DF804EB890028BF40F863
:10028000042B08BF704748BF20F8022B11F0804FA5
:1002900018BF00F8012B704770477047704710B5C2
:1002A00000F008F8006810BD10B5044600F002F830
:1002B000046010BD004870471801002000487047D6
:1002C000180100207546FFF7F9FFAE4605006946A4
:1002D000534620F00700854618B020B5FFF784FF8D
:1002E000BDE820404FF000064FF000074FF0000837
:1002F0004FF0000BAC46ACE8C009ACE8C009ACE874
:10030000C009ACE8C00921F007018D46704710B55F
:100310000446AFF300802046BDE81040FFF74FBF12
:1003200001491820ABBEFEE726000200704700001E
:10033000FFE7FEE780B540F2E810C2F2000000F0EF
:10034000FDF980BD84B0039002910192009303985F
:10035000C16B026C012090404860009803990968C5
:10036000486003984068102809D1FFE70198039975
:1003700009688860029803990968C86008E00298D3
:10038000039909688860019803990968C860FFE7C4
:1003900004B070477047000081B0EFF3108072B670
:1003A0000090FFE7FEE7000083B0019000208DF889
:1003B0000300019890F8210002280DD0FFE7019971
:1003C00004208863FFE70199002081F82000FFE7FF
:1003D00001208DF80B0021E001980168086820F0E9
:1003E0000E00086001980168086820F001000860AC
:1003F0000198C16B026C012090404860FFE70199B1
:10040000012081F82100FFE70199002081F82000F8
:10041000FFE79DF803008DF80B00FFE79DF80B0048
:1004200003B0704780B596B0159000208DF853004A
:10043000159890F82100022807D0FFE715990420AD
:10044000886301208DF8530074E1159801680868ED
:1004500020F00E00086015980168086820F001007F
:100460000860159800688121C4F202018842C0F03A
:10047000A880FFE7159800680821C4F202018842AD
:1004800003D1FFE70120139094E0159800681C2128
:10049000C4F20201884203D1FFE71020129086E0E7
:1004A000159800683021C4F20201884204D1FFE7A8
:1004B0004FF48070119077E0159800684421C4F2E1
:1004C0000201884204D1FFE74FF48050109068E0A9
:1004D000159800685821C4F20201884204D1FFE750
:1004E0004FF480300F9059E0159800686C21C4F2E9
:1004F0000201884204D1FFE74FF480100E904AE0D9
:10050000159800688021C4F20201884204D1FFE7F7
:100510004FF080700D903BE01598006840F2084164
:10052000C4F20201884203D1FFE701200C902CE0C5
:100530001598006840F21C41C4F20201884203D1C0
:10054000FFE710200B901DE01598006840F2304145
:10055000C4F20201884204D1FFE74FF480700A9090
:100560000DE01598016840F24442C4F202024FF4D3
:100570008030914208BF4FF480500A90FFE70A98FC
:100580000B90FFE70B980C90FFE70C980D90FFE79E
:100590000D980E90FFE70E980F90FFE70F981090C0
:1005A000FFE710981190FFE711981290FFE712985B
:1005B0001390FFE7139840F20441C4F2020108606F
:1005C000A5E0159800680821C4F20201884203D111
:1005D000FFE70120099094E0159800681C21C4F2FF
:1005E0000201884203D1FFE71020089086E01598A9
:1005F00000683021C4F20201884204D1FFE74FF4C1
:100600008070079077E0159800684421C4F20201D9
:10061000884204D1FFE74FF48050069068E01598B7
:1006200000685821C4F20201884204D1FFE74FF468
:100630008030059059E0159800686C21C4F20201E1
:10064000884204D1FFE74FF4801004904AE01598E7
:1006500000688021C4F20201884204D1FFE74FF014
:10066000807003903BE01598006840F20841C4F2A6
:100670000201884203D1FFE7012002902CE0159887
:10068000006840F21C41C4F20201884203D1FFE736
:10069000102001901DE01598006840F23041C4F22E
:1006A0000201884204D1FFE74FF4807000900DE012
:1006B0001598016840F24442C4F202024FF48030BF
:1006C000914208BF4FF480500090FFE700980190DE
:1006D000FFE701980290FFE702980390FFE7039875
:1006E0000490FFE704980590FFE705980690FFE760
:1006F00006980790FFE707980890FFE70898099089
:10070000FFE709980421C4F202010860FFE7159988
:10071000012081F82100FFE71599002081F82000D1
:10072000FFE71598406B20B1FFE71598416B8847AC
:10073000FFE7FFE79DF8530016B080BD80B5ACB071
:100740002B902B98C06B00682A902B98006800684B
:1007500029902A982B99096CC8404007002840F13D
:100760007581FFE79DF8A4004007002840F16E81E5
:10077000FFE72B98006800688006002807D4FFE791
:100780002B980168086820F004000860FFE72B98A8
:1007900000688121C4F202018842C0F0A880FFE70E
:1007A0002B9800680821C4F20201884203D1FFE7B8
:1007B0000420289094E02B9800681C21C4F20201C8
:1007C000884203D1FFE74020279086E02B980068FD
:1007D0003021C4F20201884204D1FFE74FF4806067
:1007E000269077E02B9800684421C4F202018842E9
:1007F00004D1FFE74FF48040259068E02B98006813
:100800005821C4F20201884204D1FFE74FF480204E
:10081000249059E02B9800686C21C4F202018842B0
:1008200004D1FFE74FF4800023904AE02B98006842
:100830008021C4F20201884204D1FFE74FF08060BA
:1008400022903BE02B98006840F20841C4F202017C
:10085000884203D1FFE7042021902CE02B98006808
:1008600040F21C41C4F20201884203D1FFE740205C
:1008700020901DE02B98006840F23041C4F2020144
:10088000884204D1FFE74FF480601F900DE02B9861
:10089000016840F24442C4F202024FF480209142C7
:1008A00008BF4FF480401F90FFE71F982090FFE79C
:1008B00020982190FFE721982290FFE7229823902B
:1008C000FFE723982490FFE724982590FFE72598D9
:1008D0002690FFE726982790FFE727982890FFE7C4
:1008E000289840F20441C4F202010860A5E02B9868
:1008F00000680821C4F20201884203D1FFE7042006
:100900001E9094E02B9800681C21C4F202018842DA
:1009100003D1FFE740201D9086E02B98006830212E
:10092000C4F20201884204D1FFE74FF480601C90BA
:1009300077E02B9800684421C4F20201884204D178
:10094000FFE74FF480401B9068E02B980068582127
:10095000C4F20201884204D1FFE74FF480201A90CC
:1009600059E02B9800686C21C4F20201884204D13E
:10097000FFE74FF4800019904AE02B98006880212F
:10098000C4F20201884204D1FFE74FF08060189062
:100990003BE02B98006840F20841C4F20201884213
:1009A00003D1FFE7042017902CE02B98006840F259
:1009B0001C41C4F20201884203D1FFE74020169097
:1009C0001DE02B98006840F23041C4F202018842D9
:1009D00004D1FFE74FF4806015900DE02B9801687B
:1009E00040F24442C4F202024FF48020914208BF18
:1009F0004FF480401590FFE715981690FFE7169882
:100A00001790FFE717981890FFE718981990FFE7DD
:100A100019981A90FFE71A981B90FFE71B981C90F3
:100A2000FFE71C981D90FFE71D981E90FFE71E989A
:100A30000421C4F202010860FFE72B98C06A20B1CC
:100A4000FFE72B98C16A8847FFE7B7E12A982B99FF
:100A5000096CC8408007002840F17F81FFE79DF8BE
:100A6000A4008007002840F17881FFE72B980068F8
:100A70000068800600280BD4FFE72B9801680868FF
:100A800020F00A0008602B99012081F82100FFE77F
:100A90002B9800688121C4F202018842C0F0A8802E
:100AA000FFE72B9800680821C4F20201884203D1B5
:100AB000FFE70220149094E02B9800681C21C4F2F8
:100AC0000201884203D1FFE72020139086E02B9893
:100AD00000683021C4F20201884204D1FFE74FF4DC
:100AE0000070129077E02B9800684421C4F2020154
:100AF000884204D1FFE74FF40050119068E02B9832
:100B000000685821C4F20201884204D1FFE74FF483
:100B10000030109059E02B9800686C21C4F202015B
:100B2000884204D1FFE74FF400100F904AE02B9861
:100B300000688021C4F20201884204D1FFE74FF02F
:100B400000700E903BE02B98006840F20841C4F220
:100B50000201884203D1FFE702200D902CE02B9880
:100B6000006840F21C41C4F20201884203D1FFE751
:100B700020200C901DE02B98006840F23041C4F218
:100B80000201884204D1FFE74FF400700B900DE0A2
:100B90002B98016840F24442C4F202024FF4003044
:100BA000914208BF4FF400500B90FFE70B980C9058
:100BB000FFE70C980D90FFE70D980E90FFE70E9859
:100BC0000F90FFE70F981090FFE710981190FFE744
:100BD00011981290FFE712981390FFE71398149062
:100BE000FFE7149840F20441C4F202010860A5E056
:100BF0002B9800680821C4F20201884203D1FFE764
:100C000002200A9094E02B9800681C21C4F2020193
:100C1000884203D1FFE72020099086E02B980068E6
:100C20003021C4F20201884204D1FFE74FF4007082
:100C3000089077E02B9800684421C4F202018842B2
:100C400004D1FFE74FF40050079068E02B9800684C
:100C50005821C4F20201884204D1FFE74FF400306A
:100C6000069059E02B9800686C21C4F2020188427A
:100C700004D1FFE74FF4001005904AE02B9800687C
:100C80008021C4F20201884204D1FFE74FF00070D6
:100C900004903BE02B98006840F20841C4F2020146
:100CA000884203D1FFE7022003902CE02B980068D4
:100CB00040F21C41C4F20201884203D1FFE7202028
:100CC00002901DE02B98006840F23041C4F202010E
:100CD000884204D1FFE74FF4007001900DE02B989B
:100CE000016840F24442C4F202024FF400309142E3
:100CF00008BF4FF400500190FFE701980290FFE712
:100D000002980390FFE703980490FFE7049805908A
:100D1000FFE705980690FFE706980790FFE707981A
:100D20000890FFE708980990FFE709980A90FFE705
:100D30000A980421C4F202010860FFE7FFE72B993B
:100D4000002081F82000FFE72B98806A20B1FFE7A0
:100D50002B98816A8847FFE72FE02A982B99096C26
:100D6000C8400007002827D5FFE79DF8A40000072A
:100D7000002821D5FFE72B980168086820F00E00B5
:100D800008602B98C26B016C012000FA01F15160E0
:100D90002B9988632B9981F82100FFE72B9900207C
:100DA00081F82000FFE72B98006B20B1FFE72B981C
:100DB000016B8847FFE7FFE7FFE7FFE72CB080BD47
:100DC00083B0019000200090019820B9FFE7012036
:100DD0008DF80B006AE00198006840F20741C4F208
:100DE0000201884218D8FFE7019908684FF6F872A7
:100DF000CBF6FD7210444CF6CD42CCF6CC42A0FBB3
:100E000002026FF0030000EA9200086401990020DA
:100E1000C4F20200C86318E0019908684FF6F8327E
:100E2000CBF6FD7210444CF6CD42CCF6CC42A0FB82
:100E300002026FF0030000EA92000864019940F298
:100E40000040C4F20200C863FFE70199022081F864
:100E500021000198006800680090009843F6F07146
:100E60008843009001994868D1F808C0CB680A69A6
:100E700040EA0C00184310434A6910438A69104342
:100E8000C9690143009808430090009801990968D6
:100E90000860019900208863019A012182F82110DD
:100EA000019981F820008DF80B00FFE79DF80B00F9
:100EB00003B0704780B586B004900391029201930D
:100EC00000208DF80300FFE7049890F82000012827
:100ED00004D1FFE702208DF817004CE004990120AF
:100EE00081F82000FFE7FFE7049890F8210001282F
:100EF00032D1FFE70499022081F8210004990020F3
:100F0000886304980168086820F00100086004986C
:100F10000399029A019BFFF715FA0498C06A38B149
:100F2000FFE704980168086840F00E0008600CE0D4
:100F300004980168086820F00400086004980168BB
:100F4000086840F00A000860FFE704980168086834
:100F500040F00100086009E0FFE70499002081F8F3
:100F60002000FFE702208DF80300FFE79DF8030053
:100F70008DF81700FFE79DF8170006B080BD000050
:100F800080B584B0039000F0F5F9029003980190C9
:100F90000198013048B1FFE740F20C10C2F20000A6
:100FA0000178019808440190FFE7FFE700F0E2F9BB
:100FB0000299401A0199884201D2FFE7F6E704B08E
:100FC00080BD000092B01190109100200F900B9006
:100FD000FFE7109800680F99C840002800F09B8137
:100FE000FFE70F99012088400E90109800680E9935
:100FF00008400D900D980E99884240F08881FFE7D7
:10100000109840680790002851D0FFE70798012802
:101010003AD0FFE7079802283FD0FFE70798032858
:101020005FD0FFE70798112832D0FFE70798122812
:1010300038D0FFE707980021C1F21101884236D06D
:10104000FFE707980021C1F2120188422FD0FFE785
:1010500007980021C1F22101884228D0FFE70798B4
:101060000021C1F22201884221D0FFE70798002128
:10107000C1F2310188421AD0FFE707980021C1F27E
:101080003201884213D02FE01098C0680B902CE0FA
:101090001098C06804300B9027E01098C0680830A2
:1010A0000B9022E01098C0680C300B901DE0109857
:1010B000806818B9FFE704200B9011E01098806851
:1010C000012806D1FFE708200B900E9811990861BE
:1010D00005E008200B900E9811994861FFE7FFE7A3
:1010E00003E000200B9000E0FFE70D98FF2803D8F5
:1010F000FFE71198069003E0119804300690FFE78F
:1011000006980A900D98FF2804D8FFE70F988000F2
:10111000059006E00F996FF01F0000EB810005902D
:10112000FFE7059809900A980068099A0F219140F5
:1011300088430B99914008430A9908601098C07938
:10114000C006002840F1E280FFE7FFE741F2180007
:10115000C4F20200016841F001010160006800F082
:10116000010008900898FFE70F9820F0030008217D
:10117000C4F2010140580C900F9800F00300810068
:101180000F2000FA01F10C9888430C90119840F65A
:101190000001C4F20101884203D1FFE7002004905E
:1011A00042E0119840F60041C4F20101884203D1A7
:1011B000FFE70120039034E0119841F20001C4F2EE
:1011C0000101884203D1FFE70220029026E0119836
:1011D00041F20041C4F20101884203D1FFE703203C
:1011E000019018E0119841F60001C4F20101884213
:1011F00003D1FFE7042000900AE0119941F6004274
:10120000C4F201020620914208BF05200090FFE7CA
:1012100000980190FFE701980290FFE70298039081
:10122000FFE703980490FFE704980F9901F003018A
:10123000890000FA01F10C9808430C900C980F9962
:1012400021F003010822C4F201028850109880792D
:10125000C006002809D5FFE70D9A40F20841C4F204
:10126000010108681043086008E00D9A40F2084147
:10127000C4F20101086890430860FFE71098807984
:101280008006002809D5FFE70D9A40F20C41C4F210
:10129000010108681043086008E00D9A40F20C4113
:1012A000C4F20101086890430860FFE71098807954
:1012B0008007002809D5FFE70D9A40F20441C4F2E7
:1012C000010108681043086008E00D9A40F20441EB
:1012D000C4F20101086890430860FFE71098807924
:1012E000C00748B1FFE70D9A40F20041C4F2010186
:1012F00008681043086008E00D9A40F20041C4F20B
:101300000101086890430860FFE7FFE7FFE70F98D7
:1013100001300F905DE612B07047000083B002907C
:10132000ADF806100298C0680090009ABDF806005B
:1013300002EA0001904340EA01400299086103B0CB
:101340007047000082B00190ADF802108DF80120C6
:101350009DF8010028B1FFE7BDF80200019908617E
:1013600005E0BDF80200000401990861FFE702B042
:101370007047000040F2C460C2F20000006870478D
:1013800080B58EB00C900C9820B9FFE701208DF845
:10139000370043E10C9890F83D0040B9FFE70C9905
:1013A000002081F83C000C9800F03CF9FFE70C9914
:1013B000242081F83D000C980168086820F00100A5
:1013C00008600C980168086840F4004008600C98B8
:1013D0000168086820F40040086000F05FFB0A9094
:1013E0000C98406848F2A061C0F2010188420BD815
:1013F000FFE70A9948F28042C0F21E0200209142A3
:1014000038BF012009900AE00A9940F60012C0F2A4
:101410003D020020914238BF01200990FFE7099862
:10142000012804D1FFE701208DF83700F6E00A9883
:101430004DF68361C4F21B31A0FB0110800C0B90B0
:101440000C980068406820F03F000B9908430C9905
:10145000096848600C980068006A20F03F00089016
:101460000C98406848F2A061C0F20101884204D89B
:10147000FFE70B98013007900EE00B984FF4967140
:10148000484344F6D351C1F26201A0FB010101209F
:1014900000EB91100790FFE70898079908430C9913
:1014A000096808620C980068C0694CF6FF718843AF
:1014B00006900C98406848F2A061C0F20101884291
:1014C0001FD8FFE70A9801380C9949684900B0FB1A
:1014D000F1F001306FF31F30032803D8FFE7042039
:1014E00005900BE00A9801380C9949684900B0FB57
:1014F000F1F001306FF31F300590FFE7059804907D
:101500004CE00C98806868B9FFE70A9801380C999C
:10151000496801EB4101B0FBF1F001306FF31F307E
:1015200003900DE00A9801380C994968192251433B
:10153000B0FBF1F00130042161F31F300390FFE7AD
:101540000398000518B9FFE70120029023E00C98EA
:10155000806868B9FFE70A9801380C99496801EB7F
:101560004101B0FBF1F001306FF31F3001900DE04D
:101570000A9801380C99496819225143B0FBF1F0DF
:101580000130042161F31F300190FFE7019840F41E
:1015900000400290FFE702980490FFE70698049944
:1015A00008430C990968C8610C980068006820F02D
:1015B000C0000C9B1968DA691B6A1A431043086063
:1015C0000C980068806848F2FF3188430C9A1168D3
:1015D000D36812691A43104388600C980068C06889
:1015E00020F0FF000C9B19685A699B691A4310434D
:1015F000C8600C980168086840F0010008600C9908
:10160000002008640C9A202182F83D100C99086390
:101610000C9981F83E008DF83700FFE79DF8370000
:101620000EB080BD80B588B0079000200690059070
:10163000049003900798006845F20041C4F200014D
:1016400088423ED1FFE7FFE741F21800C4F20200F2
:10165000016841F008010160006800F00800029094
:101660000298FFE74FF4407003901220049003208B
:10167000069040F60040C4F2010003A9FFF7A2FC67
:10168000FFE70421C4F2010108680190019840F0CD
:10169000E0600190019840F002000190019808601C
:1016A000FFE7FFE741F21C00C4F20200016841F4C9
:1016B00000110160006800F4001000900098FFE73E
:1016C000FFE708B080BD000040F20C10C2F200003D
:1016D000027840F2C461C2F2000108681044086058
:1016E0007047000080B542F20001C4F202010868B0
:1016F00040F010000860032000F096F80F2000F082
:1017000005F800F03BF8002080BD000080B582B0F5
:10171000009040F2F000C2F20000006840F20C11AC
:10172000C2F200010A784FF47A71B1FBF2F1B0FB1A
:10173000F1F000F073FD20B1FFE701208DF8070004
:1017400018E000980F280DD8FFE700994FF0FF3000
:10175000002200F04FF8009840F21011C2F2000190
:10176000086003E001208DF8070003E000208DF8F9
:101770000700FFE79DF8070002B080BD83B0FFE7D8
:1017800041F21800C4F20200016841F00101016059
:10179000006800F0010002900298FFE7FFE741F2C5
:1017A0001C00C4F20200016841F080510160006831
:1017B00000F0805001900198FFE7FFE70421C4F298
:1017C000010108680090009820F0E0600090009807
:1017D00040F00070009000980860FFE703B0704789
:1017E00080B582B08DF807009DF9070003F0BCFFBB
:1017F00002B080BD80B586B08DF8170004910392C9
:101800000020029003F0C8FF02909DF9170001909C
:1018100002980499039A02F063FF0146019803F0CD
:10182000C3FF06B080BD000080B582B00190019872
:1018300003F0DCFF02B080BD80B584B0029001915E
:10184000029820B9FFE701208DF80F001BE10198F5
:1018500042F20001C4F20201096801F00701884266
:1018600016D9FFE742F20000C4F20200016821F03D
:101870000701019A11430160006800F00700019917
:10188000884204D0FFE701208DF80F00FBE0FFE75E
:1018900002980078800700282AD5FFE70298007890
:1018A0004007002809D5FFE741F20401C4F2020114
:1018B000086840F4E0600860FFE7029800780007DD
:1018C000002809D5FFE741F20401C4F202010868CB
:1018D00040F460500860FFE741F20401C4F20201E5
:1018E000086820F0F000029A926810430860FFE751
:1018F00002980078C007002860D0FFE7029840688F
:1019000001280ED1FFE741F20000C4F20200006896
:101910008003002804D4FFE701208DF80F00B2E017
:1019200021E00298406802280ED1FFE741F2000052
:10193000C4F2020000688001002804D4FFE70120FF
:101940008DF80F009FE00DE041F20000C4F20200AC
:1019500000688007002804D4FFE701208DF80F00FD
:1019600091E0FFE7FFE741F20401C4F202010868D9
:1019700020F00300029A526810430860FFF7FAFC57
:101980000090FFE741F20400C4F20200006800F09A
:101990000C0002994968B0EB810F0ED0FFE7FFF70A
:1019A000E9FC0099401A41F28931884204D3FFE7EB
:1019B00003208DF80F0066E0E4E7FFE7019842F2AC
:1019C0000001C4F20201096801F00701884216D241
:1019D000FFE742F20000C4F20200016821F00701B3
:1019E000019A11430160006800F0070001998842E4
:1019F00004D0FFE701208DF80F0044E0FFE70298D4
:101A00000078400700280CD5FFE741F20401C4F23A
:101A10000201086820F4E060029AD268104308606E
:101A2000FFE702980078000700280DD5FFE741F294
:101A30000401C4F20201086820F46050029A12699D
:101A400040EAC2000860FFE700F04CF841F20401F0
:101A5000C4F202010968C9B20A0949F24831C0F664
:101A60000001895CC84040F2F001C2F20001086048
:101A700040F21010C2F200000068FFF747FE00209D
:101A80008DF80F00FFE79DF80F0004B080BD000047
:101A900040F2F000C2F200000068704780B5FFF726
:101AA000F7FF41F20401C4F202010968C1F3022206
:101AB00049F25831C0F60001895CC84080BD000081
:101AC00080B5FFF7E5FF41F20401C4F202010968A5
:101AD000C1F3C22249F25831C0F60001895CC84006
:101AE00080BD000086B00020059004900390029015
:101AF000019041F20400C4F20200006805900598CC
:101B000000F00C000146009100283FD0FFE700984C
:101B1000042804D0FFE70098082806D037E041F2F7
:101B20000020C0F27A00019037E00598C0F38341AD
:101B300049F26030C0F60000405C02909DF816004B
:101B4000C007C0B1FFE741F20400C4F20200006820
:101B5000C0F3404149F27030C0F60000405C049090
:101B6000029841F20021C0F27A0148430499B0FB87
:101B7000F1F0039007E0029840F60011C0F23D0139
:101B800048430390FFE70398019006E0FFE741F226
:101B90000020C0F27A000190FFE7019806B070477C
:101BA00080B586B00490049820B9FFE701208DF835
:101BB00017002EE304980078C007002800F0AE80DC
:101BC000FFE741F20400C4F20200006800F00C00DC
:101BD000042813D0FFE741F20400C4F202000068B9
:101BE00000F00C0008281BD1FFE741F20400C4F20A
:101BF00002000068C003002812D5FFE741F2000090
:101C0000C4F2020000688003002808D5FFE70498AA
:101C1000406820B9FFE701208DF81700F9E27CE069
:101C2000FFE704984068B0F5803F09D1FFE741F233
:101C30000001C4F20201086840F48030086032E01C
:101C40000498406868B9FFE741F20001C4F202015C
:101C5000086820F480300860086820F4802008605C
:101C600020E004984068B0F5A02F0DD1FFE741F2C5
:101C70000001C4F20201086840F48020086008688E
:101C800040F4803008600CE041F20001C4F202012F
:101C9000086820F480300860086820F4802008601C
:101CA000FFE7FFE7FFE7FFE704984068D0B1FFE7F1
:101CB000FFF760FB0390FFE741F20000C4F202006F
:101CC0000068800300280CD4FFE7FFF753FB03995B
:101CD000401A652804D3FFE703208DF8170098E227
:101CE000EAE719E0FFF746FB0390FFE741F2000047
:101CF000C4F202000068800300280CD5FFE7FFF75C
:101D000039FB0399401A652804D3FFE703208DF8B7
:101D100017007EE2EAE7FFE7FFE7FFE704980078B5
:101D20008007002840F18D80FFE741F20400C4F2F3
:101D30000200006810F00C0F13D0FFE741F204001E
:101D4000C4F20200006800F00C00082829D1FFE767
:101D500041F20400C4F202000068C003002820D44D
:101D6000FFE741F20000C4F202000068800700288B
:101D700009D5FFE704980069012804D0FFE7012096
:101D80008DF8170045E241F20001C4F20201086833
:101D900020F0F800049A526940EAC2000860FFE7A8
:101DA0004EE00498006958B3FFE70021C4F24221D5
:101DB00001200860FFF7DEFA0390FFE741F2000020
:101DC000C4F202000068800700280CD4FFE7FFF788
:101DD000D1FA0399401A032804D3FFE703208DF8B2
:101DE000170016E2EAE741F20001C4F202010868B6
:101DF00020F0F800049A526940EAC20008601EE030
:101E00000021C4F2422100200860FFF7B3FA0390DA
:101E1000FFE741F20000C4F20200006880070028DA
:101E20000CD5FFE7FFF7A6FA0399401A032804D35D
:101E3000FFE703208DF81700EBE1EAE7FFE7FFE794
:101E4000FFE7049800780007002848D5FFE70498CA
:101E5000806918B3FFE740F28041C4F242210120BB
:101E60000860FFF787FA0390FFE741F22400C4F20D
:101E700002000068800700280CD4FFE7FFF77AFA19
:101E80000399401A032804D3FFE703208DF81700B5
:101E9000BFE1EAE7012002F0E7FC1FE040F28041E9
:101EA000C4F2422100200860FFF764FA0390FFE7C4
:101EB00041F22400C4F202000068800700280CD51B
:101EC000FFE7FFF757FA0399401A032804D3FFE707
:101ED00003208DF817009CE1EAE7FFE7FFE704988D
:101EE00000784007002840F1D880FFE700208DF8F7
:101EF000070041F21C00C4F202000068C000002884
:101F000013D4FFE7FFE741F21C00C4F202000168AE
:101F100041F080510160006800F08050009000980E
:101F2000FFE701208DF80700FFE747F20000C4F249
:101F300000000068C005002822D4FFE747F2000136
:101F4000C4F20001086840F480700860FFF712FADC
:101F50000390FFE747F20000C4F200000068C005EC
:101F600000280CD4FFE7FFF705FA0399401A65280B
:101F700004D3FFE703208DF817004AE1EAE7FFE703
:101F8000FFE70498C068012809D1FFE741F220016A
:101F9000C4F20201086840F00100086031E00498D2
:101FA000C06868B9FFE741F22001C4F20201086885
:101FB00020F001000860086820F0040008601FE0BD
:101FC0000498C06805280DD1FFE741F22001C4F252
:101FD0000201086840F004000860086840F0010051
:101FE00008600CE041F22001C4F20201086820F010
:101FF00001000860086820F004000860FFE7FFE7C0
:10200000FFE7FFE70498C068E0B1FFE7FFF7B2F928
:102010000390FFE741F22000C4F20200006880074D
:1020200000280ED4FFE7FFF7A5F90399401A41F203
:102030008931884204D3FFE703208DF81700E8E0D8
:10204000E8E71BE0FFF796F90390FFE741F2200075
:10205000C4F202000068800700280ED5FFE7FFF7F2
:1020600089F90399401A41F28931884204D3FFE784
:1020700003208DF81700CCE0E8E7FFE79DF80700A4
:10208000012809D1FFE741F21C01C4F202010868EE
:1020900020F080500860FFE7FFE70498C06900283F
:1020A00000F0B380FFE741F20400C4F202000068D0
:1020B00000F00C00082800F08280FFE70498C06957
:1020C00002285CD1FFE76021C4F2422100200860B1
:1020D000FFF750F90390FFE741F20000C4F202005D
:1020E0000068800100280CD5FFE7FFF743F903994A
:1020F000401A032804D3FFE703208DF8170088E077
:10210000EAE70498006AB0F5803F0CD1FFE741F29E
:102110000401C4F20201086820F40030049A9268B5
:1021200010430860FFE741F20401C4F202010868AD
:1021300020F47410049B1A6A5B6A1A431043086007
:102140006021C4F2422101200860FFF713F90390D7
:10215000FFE741F20000C4F202000068800100289D
:102160000CD4FFE7FFF706F90399401A032804D3BC
:10217000FFE703208DF817004BE0EAE71EE060213F
:10218000C4F2422100200860FFF7F4F80390FFE753
:1021900041F20000C4F202000068800100280CD562
:1021A000FFE7FFF7E7F80399401A032804D3FFE796
:1021B00003208DF817002CE0EAE7FFE724E00498FD
:1021C000C069012804D1FFE701208DF8170020E045
:1021D00041F20400C4F2020000680290029800F488
:1021E00080300499096A884208D1FFE7029800F418
:1021F00070100499496A884204D0FFE701208DF8E5
:10220000170006E0FFE7FFE7FFE700208DF8170063
:10221000FFE79DF8170006B080BD000080B582B0D2
:102220000190019802F040FB02B080BD81B00090A7
:1022300001B0704781B0009001B0704785B0039045
:102240000291FFE7039890F83C00012804D1FFE7D2
:1022500002208DF813006DE00399012081F83C0005
:10226000FFE7FFE70399022081F83D00039800682B
:10227000406801900398006880680090019820F001
:10228000700001900298016801980843019001983C
:102290000399096848600398006842F60041C4F257
:1022A000010188422AD0FFE70398006843F2004109
:1022B000C4F20101884221D0FFE703980068B0F121
:1022C000804F1BD0FFE70398006840F20041C4F242
:1022D0000001884212D0FFE70398006840F6000131
:1022E000C4F20001884209D0FFE70398006840F675
:1022F0000041C4F2000188420ED1FFE7009820F0AF
:10230000800000900298416800980843009000986F
:10231000039909688860FFE70399012081F83D006F
:10232000FFE70399002081F83C00FFE700208DF8CB
:102330001300FFE79DF8130005B0704780B582B029
:102340000090009820B9FFE701208DF807003FE0DA
:10235000009890F83D0040B9FFE70099002081F80F
:102360003C00009800F038F8FFE70099022081F85F
:102370003D00009951F8040B02F014FB0099012074
:1023800081F84600FFE70099012081F83E0000999E
:1023900081F83F00009981F84000009981F84100E0
:1023A000FFE7FFE70099012081F84200009981F8DA
:1023B0004300009981F84400009981F84500FFE747
:1023C0000099012081F83D0000208DF80700FFE70B
:1023D0009DF8070002B080BD80B58AB009900998C9
:1023E000006842F60041C4F20101884210D1FFE7C3
:1023F000FFE741F21800C4F20200016841F40061F5
:102400000160006800F4006008900898FFE79CE015
:102410000998006840F20041C4F20001884210D1DE
:10242000FFE7FFE741F21C00C4F20200016841F03F
:1024300002010160006800F0020007900798FFE7C2
:1024400082E00998006840F60001C4F20001884269
:1024500010D1FFE7FFE741F21C00C4F2020001685F
:1024600041F004010160006800F004000690069845
:10247000FFE768E00998006840F60041C4F20001F7
:10248000884219D1FFE7FFE741F21C00C4F20200C5
:10249000016841F008010160006800F00800059043
:1024A0000598FFE73220029000221146FFF7A2F9BB
:1024B0000298FFF795F945E00998006841F200019C
:1024C000C4F20001884219D1FFE7FFE741F21C0086
:1024D000C4F20200016841F010010160006800F0E0
:1024E000100004900498FFE7362001900022114666
:1024F000FFF780F90198FFF773F922E00998006867
:1025000041F20041C4F20001884219D1FFE7FFE720
:1025100041F21C00C4F20200016841F02001016098
:10252000006800F0200003900398FFE73720009038
:1025300000221146FFF75EF90098FFF751F9FFE717
:10254000FFE7FFE7FFE7FFE7FFE70AB080BD000016
:1025500083B00190019890F83D00012804D0FFE776
:1025600001208DF80B0059E00199022081F83D000F
:1025700001980168C86840F00100C86001980068CF
:1025800042F60041C4F2010188422AD0FFE70198D7
:10259000006843F20041C4F20101884221D0FFE704
:1025A00001980068B0F1804F1BD0FFE701980068E8
:1025B00040F20041C4F20001884212D0FFE70198C6
:1025C000006840F60001C4F20001884209D0FFE72C
:1025D0000198006840F60041C4F20001884212D11F
:1025E000FFE701980068806800F0070000900098FD
:1025F000062807D0FFE701980168086840F001004D
:102600000860FFE706E001980168086840F00100F3
:102610000860FFE700208DF80B00FFE79DF80B0036
:1026200003B0704780B586B00490039100208DF808
:102630000B00FFE7049890F83C00012804D1FFE765
:1026400002208DF81700ABE00499012081F83C00CE
:10265000FFE7FFE70499022081F83D000498006835
:1026600080680190019820F077000190019820F493
:102670007F40019001980499096888600398006878
:102680000090002872D0FFE7009810286ED0FFE776
:10269000009820286AD0FFE70098302866D0FFE72E
:1026A0000098402855D0FFE70098502837D0FFE722
:1026B0000098602840D0FFE7009870280BD0FFE713
:1026C0000098B0F5805F05D0FFE70098B0F5005F97
:1026D00016D052E055E004980068039B5A68996848
:1026E000DB6802F01BFA049800688068019001988A
:1026F00040F077000190019804990968886040E0F3
:1027000004980068039B5A689968DB6802F006FA2F
:1027100004980168886840F48040886031E004983B
:102720000068039A5168D26802F0ECFB04980068D4
:10273000502102F00DFA24E004980068039A5168D1
:10274000D26802F007FC04980068602102F000FAE9
:1027500017E004980068039A5168D26802F0D2FB2F
:1027600004980068402102F0F3F90AE00498006838
:102770000399096802F0ECF903E001208DF80B00E1
:10278000FFE70499012081F83D00FFE7049900204C
:1027900081F83C00FFE79DF80B008DF81700FFE77C
:1027A0009DF8170006B080BD80B586B004900391F7
:1027B000049820B9FFE701208DF8170084E0049801
:1027C00090F83D0040B9FFE70499002081F83C00F3
:1027D000049800F07DF8FFE70499022081F83D009D
:1027E00004980168886844F207029043886004995D
:1027F00051F8040B02F0D6F8049800688068029043
:10280000049800688069019004980068006A00904C
:1028100003980168029808430290019840F203313E
:102820008843019003998868896940EA01210198E9
:1028300008430190019840F60C41884301900198AB
:102840004FF2F001884301900399C868C96940EAD2
:10285000012101980843019003990869096A000160
:1028600040EA0131019808430190009820F02200CD
:10287000009003994868496940EA011100980843AB
:102880000090029804990968886001980499096881
:10289000886100980499096808620499012081F808
:1028A0004600049981F83E00049981F83F0004999C
:1028B00081F84200049981F84300049981F83D00B1
:1028C00000208DF81700FFE79DF8170006B080BDC7
:1028D00080B58EB00D9000200C900B900A9009905E
:1028E0000D980068B0F1804F5ED1FFE7FFE741F23D
:1028F0001C00C4F20200016841F00101016000689F
:1029000000F0010008900898FFE7FFE741F2180087
:10291000C4F20200016841F004010160006800F0A7
:10292000040007900798FFE7FFE741F21800C4F2A0
:102930000200016841F008010160006800F0080031
:1029400006900698FFE74FF40040099000200190A0
:102950000A900B9040F60000C4F2010009A9029110
:10296000FEF730FB01980299082209920A900B9019
:1029700040F60040C4F20100FEF724FBFFE704210B
:10298000C4F2010108680590059820F44070059094
:10299000059840F0E0600590059840F4807005903F
:1029A00005980860FFE734E00D98006843F20041A5
:1029B000C4F2010188422BD1FFE7FFE741F2180082
:1029C000C4F20200016841F400510160006800F4A3
:1029D000005004900498FFE7FFE741F21800C4F2AA
:1029E0000200016841F010010160006800F0100071
:1029F00003900398FFE7C020099000200A900B90F5
:102A000041F20000C4F2010009A9FEF7DBFAFFE77A
:102A1000FFE70EB080BD000080B586B00490039142
:102A2000049890F83E008DF80B00049890F83F0051
:102A30008DF80A00049890F842008DF80900049877
:102A400090F843008DF808000398B8B9FFE79DF8A7
:102A50000B00012805D1FFE79DF80900012804D0EB
:102A6000FFE701208DF8170079E00499022081F832
:102A70003E00049981F84200FFE742E003980428F1
:102A800017D1FFE79DF80A00012805D1FFE79DF85F
:102A90000800012804D0FFE701208DF817005EE050
:102AA0000499022081F83F00049981F84300FFE770
:102AB00026E09DF80B0001280FD1FFE79DF80A00E2
:102AC00001280AD1FFE79DF80900012805D1FFE799
:102AD0009DF80800012804D0FFE701208DF81700B9
:102AE0003DE00499022081F83E00049981F83F00FE
:102AF000049981F84200049981F84300FFE7FFE759
:102B0000FFE70398019020B1FFE70198042807D060
:102B10000DE0049800680021012201F0E3FF14E0B9
:102B2000049800680421012201F0DCFF0DE0049804
:102B3000006800210122009201F0D4FF009A04985D
:102B40000068042101F0CEFFFFE7049801680868DF
:102B500040F00100086000208DF81700FFE79DF8A5
:102B6000170006B080BD000081B0009001B0704732
:102B700080B582B0019001980068006900F0020100
:102B80000020B0EB510F28D0FFE701980068C06823
:102B900000F002010020B0EB510F1DD0FFE70198BB
:102BA00001686FF00200086101990120087701981F
:102BB00000688069800720B1FFE70198FFF7D4FF24
:102BC00006E0019800F068F9019800F05DFAFFE76F
:102BD000019900200877FFE7FFE701980068006986
:102BE00000F004010020B0EB910F29D0FFE701981D
:102BF0000068C06800F004010020B0EB910F1ED007
:102C0000FFE7019801686FF0040008610199022054
:102C1000087701980068806910F4407F04D0FFE7CE
:102C20000198FFF7A1FF06E0019800F035F901983F
:102C300000F02AFAFFE7019900200877FFE7FFE795
:102C400001980068006900F008010020B0EBD10F86
:102C500028D0FFE701980068C06800F00801002054
:102C6000B0EBD10F1DD0FFE7019801686FF00800AD
:102C7000086101990420087701980068C0698007FD
:102C800020B1FFE70198FFF76FFF06E0019800F021
:102C900003F9019800F0F8F9FFE70199002008779F
:102CA000FFE7FFE701980068006900F010010020CD
:102CB000B0EB111F29D0FFE701980068C06800F051
:102CC00010010020B0EB111F1ED0FFE70198016832
:102CD0006FF01000086101990820087701980068DA
:102CE000C06910F4407F04D0FFE70198FFF73CFF74
:102CF00006E0019800F0D0F8019800F0C5F9FFE770
:102D0000019900200877FFE7FFE701980068006954
:102D1000C00780B1FFE701980068C068C00748B1EC
:102D2000FFE7019801686FF001000861019800F069
:102D300085FAFFE7FFE7019800680069C1B200204B
:102D4000B0EBD11F13D0FFE701980068C068C1B293
:102D50000020B0EBD11F09D0FFE7019801686FF0A8
:102D6000800008610198FFF761FAFFE7FFE701982B
:102D70000068006900F040010020B0EB911F14D002
:102D8000FFE701980068C06800F040010020B0EB48
:102D9000911F09D0FFE7019801686FF040000861BA
:102DA000019800F09DFAFFE7FFE7019800680069CD
:102DB00000F020010020B0EB511F14D0FFE7019874
:102DC0000068C06800F020010020B0EB511F09D05E
:102DD000FFE7019801686FF0200008610198FFF794
:102DE00029FAFFE7FFE702B080BD000080B588B098
:102DF00007900020069005900490039007980068C3
:102E000040F20041C4F2000188421CD1FFE7FFE715
:102E100041F21800C4F20200016841F004010160AF
:102E2000006800F0040002900298FFE7C0200390C1
:102E300002200490069040F60000C4F2010003A9AD
:102E4000FEF7C0F825E00798006840F60001C4F2DC
:102E5000000188421CD1FFE7FFE741F21800C4F2ED
:102E60000200016841F008010160006800F00800FC
:102E700001900198FFE7C020039002200490069083
:102E800040F60040C4F2010003A9FEF79BF8FFE7FB
:102E9000FFE708B080BD000081B0009001B070472E
:102EA00080B586B004900391029200208DF807004F
:102EB000FFE7049890F83C00012804D1FFE70220C6
:102EC0008DF8170089E00499012081F83C00FFE7A4
:102ED000FFE7029800900C2800F270800099DFE86C
:102EE00001F0076D6D6D206D6D6D3A6D6D6D530068
:102EF00004980068039901F041FE0498016888690C
:102F000040F00800886104980168886920F0040096
:102F10008861039802690498016888691043886190
:102F200050E004980068039901F0A0FE049801683D
:102F3000886940F40060886104980168886920F419
:102F4000806088610398026904980168886940EA92
:102F50000220886136E004980068039901F002FFBE
:102F600004980168C86940F00800C86104980168C5
:102F7000C86920F00400C8610398026904980168D8
:102F8000C8691043C8611DE004980068039901F006
:102F900065FF04980168C86940F40060C86104983E
:102FA0000168C86920F48060C861039802690498C8
:102FB0000168C86940EA0220C86103E001208DF879
:102FC0000700FFE7FFE70499002081F83C00FFE7D6
:102FD0009DF807008DF81700FFE79DF8170006B071
:102FE00080BD000080B582B00090009820B9FFE756
:102FF00001208DF807003FE0009890F83D0040B9AF
:10300000FFE70099002081F83C00009800F038F8B4
:10301000FFE70099022081F83D00009951F8040B68
:1030200001F0C0FC0099012081F84600FFE70099FB
:10303000012081F83E00009981F83F00009981F855
:103040004000009981F84100FFE7FFE70099012067
:1030500081F84200009981F84300009981F844000A
:10306000009981F84500FFE70099012081F83D00B3
:1030700000208DF80700FFE79DF8070002B080BD33
:1030800081B0009001B0704781B0009001B07047EE
:1030900080B58CB00A900991099828B9FFE70A9881
:1030A00090F83E0007901CE00998042805D1FFE73E
:1030B0000A9890F83F00069010E00998082805D17A
:1030C000FFE70A9890F84000059004E00A9890F80D
:1030D00041000590FFE705980690FFE706980790E6
:1030E000FFE70798012804D0FFE701208DF82F00A3
:1030F0009FE0099828B9FFE70A99022081F83E006D
:103100001EE00998042806D1FFE70A99022081F8F9
:103110003F00049012E00998082806D1FFE70A99B9
:10312000022081F84000039005E00A99022081F80E
:1031300041000390FFE703980490FFE70498FFE73E
:103140000A98006809990122019201F0CBFC0198CC
:103150000A99096842F60042C4F2010291420290C3
:103160000CD0FFE70A9800684CF60041CBF6FE71E0
:103170000844B0FA80F040090290FFE70298C007C7
:1031800038B1FFE70A980168486C40F40040486491
:10319000FFE70A98006842F60041C4F20101884244
:1031A0002AD0FFE70A98006843F20041C4F2010107
:1031B000884221D0FFE70A980068B0F1804F1BD009
:1031C000FFE70A98006840F20041C4F2000188421B
:1031D00012D0FFE70A98006840F60001C4F200012F
:1031E000884209D0FFE70A98006840F60041C4F21F
:1031F0000001884212D1FFE70A980068806800F059
:10320000070008900898062807D0FFE70A98016889
:10321000086840F001000860FFE706E00A980168CE
:10322000086840F001000860FFE700208DF82F00DB
:10323000FFE79DF82F000CB080BD000080B582B084
:1032400001900198006840F60041C4F200018842F4
:1032500037D1FFE703F05AFC40F2F850C2F2000009
:1032600003F02CFB40F25050C2F2000000680068EE
:103270000007002824D5FFE7FFE70020009040F278
:103280005050C2F20000016809680091006840686F
:1032900000900098FFE740F25051C2F20001202058
:1032A00081F84200002081F8400040F20410C2F290
:1032B0000000016851F8680B012200F075FCFFE77F
:1032C000FFE70198006841F20041C4F20001884222
:1032D00003D1FFE702F02AFBFFE702B080BD000048
:1032E00081B0009001B0704782B00190ADF802103B
:1032F00002B0704780B584B003900020029003981C
:1033000000684069C0B2C0090290039890F841007B
:10331000212823D1FFE7029800B3FFE7FFE7FFE78B
:103320000398006850E8050F20F080000190FFE747
:1033300001990398026842E805100028F0D1FFE7E0
:10334000FFE70398806B28B1FFE70398806BFDF7D8
:103350002BF8FFE7039801F06FFFFFE70398006881
:103360004069C0F380100290039890F84200222830
:1033700023D1FFE7029800B3FFE7FFE7FFE70398D9
:10338000006850E8050F20F040000090FFE700992A
:103390000398026842E805100028F0D1FFE7FFE734
:1033A0000398C06B28B1FFE70398C06BFCF7FCFFE4
:1033B000FFE7039801F0E2FEFFE7002004B080BDC4
:1033C00081B0009001B0704780B592B01190119813
:1033D00000680068109011980068C0680F901198FC
:1033E000006840690E9000200D900C90109800F03D
:1033F0000F000D900D9888B9FFE79DF840008006FA
:1034000000280AD5FFE79DF83C008006002804D577
:10341000FFE7119801F02CFFE9E1FFE70D98002884
:1034200000F0C280FFE79DF83800C00738B9FFE719
:10343000BDF83C0010F4907F00F0B680FFE79DF8E7
:103440004000C00758B1FFE79DF83D00C00730B10C
:10345000FFE71199486C40F001004864FFE79DF8D0
:103460004000400700280BD5FFE79DF83800C00753
:1034700030B1FFE71199486C40F002004864FFE763
:103480009DF84000800700280BD5FFE79DF8380025
:10349000C00730B1FFE71199486C40F00400486460
:1034A000FFE79DF840000007002811D5FFE79DF8D1
:1034B0003C008006002805D4FFE79DF83800C007CF
:1034C00030B1FFE71199486C40F008004864FFE70D
:1034D0001198406C002866D0FFE79DF840008006F8
:1034E00000280AD5FFE79DF83C008006002804D597
:1034F000FFE7119801F0BCFEFFE7119800684069F2
:10350000C0F380100C901198406C0007002804D480
:10351000FFE70C9800283ED0FFE7119801F02EFE3F
:10352000119800684069400600282FD5FFE7FFE7A3
:10353000FFE71198006850E8050F20F040000B905D
:10354000FFE70B991198026842E805100028F0D1B6
:10355000FFE7FFE71198C06B98B1FFE71198C16BC7
:1035600044F6B970C0F6000048631198C06BFCF7D0
:1035700059FF28B1FFE71198C06B416B8847FFE7FF
:1035800003E01198FFF71CFFFFE703E01198FFF736
:1035900017FFFFE706E01198FFF712FF11990020CF
:1035A0004864FFE7FFE722E11198006B012840F033
:1035B000FE80FFE79DF84000C006002840F1F7803C
:1035C000FFE79DF83C00C006002840F1F080FFE7CF
:1035D000FFE700200A901198006800680A9011988F
:1035E000006840680A900A98FFE7119800684069EF
:1035F0004006002840F18180FFE71198C06B006809
:103600004068ADF82600BDF82600002874D0FFE71A
:10361000BDF826001199898D88426DDAFFE7BDF863
:1036200026001199C8851198C06B8069202858D050
:10363000FFE7FFE7FFE71198006850E8030F20F469
:1036400080700890FFE708991198026842E803101B
:103650000028F0D1FFE7FFE7FFE7FFE711980068D8
:1036600050E8050F20F001000790FFE70799119837
:10367000026842E805100028F0D1FFE7FFE7FFE706
:10368000FFE71198006850E8050F20F04000069011
:10369000FFE706991198026842E805100028F0D16A
:1036A000FFE7FFE71199202081F8420011990020DF
:1036B0000863FFE7FFE71198006850E8030F20F068
:1036C00010000590FFE705991198026842E8031081
:1036D0000028F0D1FFE7FFE71198C06BFCF764FE0C
:1036E000FFE71199022048631198818DC28D891AD4
:1036F00089B2FFF7F9FDFFE779E01199888DC98D4F
:10370000401AADF812001198C08D00284ED0FFE786
:10371000BDF81200002849D0FFE7FFE7FFE7119846
:10372000006850E8030F20F490700390FFE70399BE
:103730001198026842E803100028F0D1FFE7FFE784
:10374000FFE7FFE71198006850E8050F20F001003F
:103750000290FFE702991198026842E805100028DC
:10376000F0D1FFE7FFE71199202081F8420011997D
:1037700000200863FFE7FFE71198006850E8030F97
:1037800020F010000190FFE701991198026842E8CB
:1037900003100028F0D1FFE7FFE7119902204863EA
:1037A0001198BDF81210FFF79FFDFFE71FE09DF88D
:1037B0004000000600280AD5FFE79DF83C000006FF
:1037C000002804D5FFE7119801F01EFF0FE09DF8D7
:1037D0004000400600280AD5FFE79DF83C0040065F
:1037E000002804D5FFE7119801F012FDFFE712B0A1
:1037F00080BD000080B582B00090009820B9FFE73E
:1038000001208DF8070040E00098806908B1FFE7CB
:1038100000E0FFE7009890F8410040B9FFE7009909
:10382000002081F84000009800F034F8FFE700998C
:10383000242081F8410000980168C86820F40050F5
:10384000C860009801F0CAFD00980168086920F47A
:103850009040086100980168486920F02A0048619A
:1038600000980168C86840F40050C86000990020C2
:103870004864009A202182F84110009A82F8421090
:10388000009948638DF80700FFE79DF8070002B034
:1038900080BD000080B59EB01D9000201C901B9044
:1038A0001A9019901D98006844F60041C4F2000176
:1038B000884243D1FFE7FFE741F21C00C4F2020057
:1038C000016841F400210160006800F400201890B4
:1038D0001898FFE7FFE741F21800C4F20200016800
:1038E00041F010010160006800F010001790179877
:1038F000FFE74FF48060199002201A9003201C907B
:1039000041F20000C4F201000D9019A90E91FDF7DB
:1039100059FB0D980E994FF40062199200220F92F4
:103920001A921B92FDF74EFB0F9A3420109011460D
:10393000FDF760FF1098FDF753FF07E11D98006841
:1039400043F60001C4F20101884266D1FFE7FFE7B8
:1039500041F21800C4F20200016841F480410160A4
:10396000006800F4804016901698FFE7FFE741F2E8
:103970001800C4F20200016841F00401016000680F
:1039800000F0040015901598FFE74FF400701990AF
:1039900002201A9003201C9040F60000C4F201009F
:1039A000099019A90A91FDF70DFB09980A994FF49E
:1039B0008062199200220B921A921B92FDF702FB71
:1039C0000B9940F2E810C2F200000C905822C4F2A9
:1039D00002020260416081608022C2600161416137
:1039E0008161C161FDF7ECF918B1FFE7FCF7D4FC88
:1039F000FFE7FFE71D9840F2E811C2F20001C16342
:103A00001D984862FFE72520089000221146FDF727
:103A1000F1FE0898FDF7E4FE97E01D98006844F277
:103A20000041C4F20001884241D1FFE7FFE741F2C3
:103A30001C00C4F20200016841F40031016000681A
:103A400000F4003014901498FFE7FFE741F21800EB
:103A5000C4F20200016841F004010160006800F056
:103A6000040013901398FFE70420199002201A9085
:103A700003201C9040F60000C4F20100049019A934
:103A80000591FDF79FFA04980599082219920022E2
:103A900006921A921B92FDF795FA069A2620079035
:103AA0001146FDF7A7FE0798FDF79AFE4CE01D981A
:103AB000006844F60001C4F20001884243D1FFE7E8
:103AC000FFE741F21C00C4F20200016841F48021CA
:103AD0000160006800F4802012901298FFE7FFE771
:103AE00041F21800C4F20200016841F008010160CF
:103AF000006800F0080011901198FFE74FF4806013
:103B0000199002201A9003201C9040F60040C4F245
:103B10000100009019A90191FDF754FA009801994C
:103B20004FF400621992002202921A921B92FDF742
:103B300049FA029A272003901146FDF75BFE03988D
:103B4000FDF74EFEFFE7FFE7FFE7FFE71EB080BD92
:103B500080B584B002900191ADF80220029890F8EF
:103B60004200202817D1FFE7019820B1FFE7BDF8F8
:103B7000020020B9FFE701208DF80F000FE0029945
:103B80000020086302980199BDF8022001F084FC2E
:103B90008DF80F0003E002208DF80F00FFE79DF87D
:103BA0000F0004B080BD000080B584B00290019188
:103BB000ADF80220029890F84200202817D1FFE7C4
:103BC000019820B1FFE7BDF8020020B9FFE701200E
:103BD0008DF80F000FE00299002008630298019908
:103BE000BDF8022001F0DEFC8DF80F0003E002209A
:103BF0008DF80F00FFE79DF80F0004B080BD0000B6
:103C000080B582B00190019840F20411C2F2000127
:103C100009680968884210D1FFE740F60000C4F245
:103C200001004FF48071FDF779FB40F20410C2F2FD
:103C30000000006801F044FF12E0019840F2081112
:103C4000C2F2000109680968884208D1FFE740F222
:103C50000810C2F20000006801F032FFFFE7FFE742
:103C600002B080BD81B0009001B0704781B000907B
:103C700001B07047FFE7FEE780B58EB00D900C9164
:103C80000B920A930C980D9988610D99029108681E
:103C900001908869C96905F021FA0146019805F08B
:103CA00051F90299C8600D9903914868896905F036
:103CB00049F9039908610D98079081680691816917
:103CC0000491C169006A0590084604F011FF01469D
:103CD000049805F003FA059904F00AFF01460698D6
:103CE00005F030F9079948610D9AD0681169526959
:103CF000089204F0FDFE089904F0FAFE09900D996F
:103D0000C86908620D998869C86109980B9904F01F
:103D10006DFF18B9FFE70B980990FFE709980A991A
:103D200004F05DFF18B9FFE70A980990FFE70998CA
:103D30000EB080BD80B586B000208DF81700FFE77B
:103D40009DF81700032800F3DF80FFE79DF81700B8
:103D500040F27812C2F200020B2100FB0120007930
:103D600001460491512809D0FFE70498522844D015
:103D7000FFE70498532800F08080BEE09DF817000C
:103D800040F27812C2F200020B2100FB0121D1F8AF
:103D90000500D1F8092040F27461C2F200014A60C6
:103DA000086000208DF81600FFE79DF81600022835
:103DB00022DCFFE79DF81610039140F27460C2F216
:103DC000000030F9110005F03DF84FF08E4104F08D
:103DD00027FF4FF0834105F0B5F8039A40F27811C0
:103DE000C2F2000101EB82010863FFE79DF81600B3
:103DF00001308DF81600D8E77FE09DF8170040F2FB
:103E00007812C2F200020B2100FB0121D1F805005B
:103E1000D1F8092040F28461C2F200014A600860D2
:103E200000208DF81500FFE79DF81500022823DC1F
:103E3000FFE79DF81510029140F28460C2F2000085
:103E400030F9110004F0FEFF4FF08E4104F0E8FE5F
:103E50000021C4F2FA4105F075F8029A40F2781197
:103E6000C2F2000101EB8201C863FFE79DF8150073
:103E700001308DF81500D7E73FE09DF8170040F2BC
:103E80007812C2F200020B2100FB0121D1F80500DB
:103E9000D1F8092040F27C61C2F200014A6008605A
:103EA00000208DF81400FFE79DF81400022823DCA1
:103EB000FFE79DF81410019140F27C60C2F200000F
:103EC00030F9110004F0BEFF4FF08E4104F0A8FE5F
:103ED0000021C4F2343105F035F8019A40F278112E
:103EE000C2F2000101EB82014862FFE79DF8140075
:103EF00001308DF81400D7E7FFE7FFE79DF81700C2
:103F000001308DF817001BE706B080BD80B582B088
:103F1000FFE741F21400C4F20200016841F0010120
:103F20000160006800F0010001900198FFE70F2098
:103F3000009000221146FDF75DFC0098FDF750FC53
:103F400002B080BD80B594B0002013901290119003
:103F50001090FFE741F21800C4F20200016841F03E
:103F600010010160006800F010000F900F98FFE74B
:103F7000FFE741F21800C4F20200016841F020019D
:103F80000160006800F020000E900E98FFE7FFE748
:103F900041F21800C4F20200016841F0040101601E
:103FA000006800F004000D900D98FFE7FFE741F274
:103FB0001800C4F20200016841F0080101600068C5
:103FC00000F008000C900C98FFE741F20000C4F2EA
:103FD0000100019042F20E01009100220792FDF7CC
:103FE000B1F9079A40F60000C4F2010002904FF4C4
:103FF00080710391FDF7A6F9079A41F20040C4F2DF
:104000000100049004210591FDF79CF9079A40F600
:104010000040C4F20100099030210B91FDF792F9A4
:10402000009A01980799109201220692119212911A
:1040300002210891139110A90A91FCF7C3FF02987D
:10404000069B079A0A99109311921292FCF7BAFFF5
:104050000198079A0A994FF44073109311921292A3
:10406000FCF7B0FF0298DDF818C0079B089A0A9980
:10407000DDF80CE0CDF840E0CDF844C01293139287
:10408000FCF7A0FF0498DDF818C0079B089A0A996E
:10409000DDF814E0CDF840E0CDF844C0129313925F
:1040A000FCF790FFDDF818C0079B089A09980A9959
:1040B000DDF82CE0CDF840E0CDF844C01293139227
:1040C000FCF780FF14B080BD80B582B040F22C2098
:1040D000C2F20000019045F20041C4F2000101600B
:1040E00048F2A061C0F20101416000218160C1601D
:1040F0004FF48042026141618161C1610162FDF75B
:104100003FF918B1FFE7FCF747F9FFE702B080BDC0
:1041100080B588B000210091079106910591049126
:104120000391029140F28020C2F20000019042F619
:104130000042C4F201020260416081604FF6FF72EA
:10414000C260016141618161FEF7F8F818B1FFE7D3
:10415000FCF722F9FFE74FF48050049040F28020F2
:10416000C2F2000004A9FEF75DFA18B1FFE7FCF700
:1041700013F9FFE700200290039040F28020C2F282
:10418000000002A9FEF75AF818B1FFE7FCF704F99E
:10419000FFE708B080BD000080B58EB005A8019093
:1041A0002421FCF752F80199002202920492039212
:1041B00040F2C820C2F200004FF08043036042602A
:1041C00082604FF6FF73C360026182610123059331
:1041D00006920793089209920A920B930C920D9201
:1041E000FEF7E2FA18B1FFE7FCF7D6F8FFE7002088
:1041F0000390049040F2C820C2F2000003A9FEF729
:104200001DF818B1FFE7FCF7C7F8FFE70EB080BD57
:1042100080B58EB0002100910D910C910B910A9107
:1042200009910891079106910591049103910291DA
:10423000019140F21030C2F2000040F20042C4F29C
:104240000002026040F2CF224260816040F2CF72F1
:10425000C26001618161FEF771F818B1FFE7FCF7F8
:104260009BF8FFE74FF480500A9040F21030C2F202
:1042700000000AA9FEF7D6F918B1FFE7FCF78CF8A1
:10428000FFE740F21030C2F20000FEF7ABFE18B1BB
:10429000FFE7FCF781F8FFE700200890099040F263
:1042A0001030C2F2000008A9FDF7C8FF18B1FFE7FF
:1042B000FCF772F8FFE7602001900022029203925F
:1042C000059240F21030C2F2000001A9FEF7E8FDAD
:1042D00018B1FFE7FCF760F8FFE740F21030C2F2D8
:1042E000000001A90422FEF7DBFD18B1FFE7FCF78F
:1042F00053F8FFE740F21030C2F20000FEF776FDFF
:104300000EB080BD80B58EB0002100910D910C9152
:104310000B910A91099108910791069105910491D9
:1043200003910291019140F25830C2F2000040F630
:104330000002C4F20002026047224260816040F243
:10434000E732C26001618161FDF7F8FF18B1FFE754
:10435000FCF722F8FFE74FF480500A9040F2583003
:10436000C2F200000AA9FEF75DF918B1FFE7FCF7F9
:1043700013F8FFE740F25830C2F20000FEF732FEB9
:1043800018B1FFE7FCF708F8FFE700200890099054
:1043900040F25830C2F2000008A9FDF74FFF18B1F3
:1043A000FFE7FBF7F9FFFFE7602001900022029290
:1043B0000392059240F25830C2F2000001A9FEF7C4
:1043C0006FFD18B1FFE7FBF7E7FFFFE740F258305A
:1043D000C2F2000001A90422FEF762FD18B1FFE756
:1043E000FBF7DAFFFFE740F25830C2F20000FEF7B9
:1043F000FDFC0EB080BD000080B588B000210191A9
:1044000007910691059104910391029140F2A03029
:10441000C2F2000040F60042C4F2000202604722ED
:104420004260816040F2E732C26001618161FDF764
:1044300085FF18B1FFE7FBF7AFFFFFE74FF48050B0
:10444000049040F2A030C2F2000004A9FEF7EAF89E
:1044500018B1FFE7FBF7A0FFFFE7002002900390F1
:1044600040F2A030C2F2000002A9FDF7E7FE18B149
:10447000FFE7FBF791FFFFE708B080BD80B582B092
:1044800000210191009140F2E830C2F2000041F2B7
:104490000002C4F20002026047224260816042F2E0
:1044A0000F72C2608161FDF749FF18B1FFE7FBF7AA
:1044B00073FFFFE700200090019040F2E830C2F265
:1044C00000006946FDF7BAFE18B1FFE7FBF764FF8D
:1044D000FFE702B080BD000080B582B000210191ED
:1044E000009140F23040C2F2000041F20042C4F2BA
:1044F0000002026047224260816044F61F62C2608F
:104500008161FDF71BFF18B1FFE7FBF745FFFFE7F0
:1045100000200090019040F23040C2F20000694655
:10452000FDF78CFE18B1FFE7FBF736FFFFE702B09F
:1045300080BD000080B58EB005A800902421FBF757
:1045400084FE0099002201920492039240F2784086
:10455000C2F20000029043F20043C4F20103036080
:10456000426082604FF6FF73C36002614261826104
:104570000123059306920793089209920A920B93DE
:104580000C920D92FEF710F918B1FFE7FBF704FF4C
:10459000FFE700200390049040F27840C2F2000050
:1045A00003A9FDF74BFE18B1FFE7FBF7F5FEFFE7A8
:1045B0000EB080BD80B582B040F29850C2F20000CB
:1045C000019044F60041C4F2000101604FF4E13172
:1045D000416000218160C16001610C224261816102
:1045E000C161FFF707F918B1FFE7FBF7D5FEFFE759
:1045F00002B080BD80B582B040F2C040C2F200007F
:10460000019043F60001C4F2010101604FF4E13171
:10461000416000218160C16001610C2242618161C1
:10462000C161FFF7E7F818B1FFE7FBF7B5FEFFE759
:1046300040F2C040C2F200000268D16841F01001AF
:10464000D16040F27811C2F2000103312122FFF75C
:104650007FFA02B080BD000080B582B040F2085001
:10466000C2F20000019044F20041C4F20001016076
:104670004FF4E131416000218160C16001610C2291
:1046800042618161C161FFF7B5F818B1FFE7FBF73F
:1046900083FEFFE702B080BD80B582B040F250508B
:1046A000C2F20000019044F60001C4F20001016072
:1046B0004FF4E131416000218160C16001610C2251
:1046C00042618161C161FFF795F818B1FFE7FBF71F
:1046D00063FEFFE702B080BDFFE7FEE7FFE7FEE70E
:1046E00088B0079006910592079800F007000490A3
:1046F0000498C0F10700052803D3FFE704200190C8
:1047000004E00498C0F107000190FFE701980390CE
:1047100004980430062803D8FFE70020009003E047
:10472000049803380090FFE70098029006980399D8
:10473000012202FA01F101390840029B98400599D3
:104740009A40013A1140084308B0704780B594B0D0
:10475000139012910020119010901398FBF756FDC2
:104760000E90FFE711980E99884276DAFFE71398CA
:104770001199405C2E2803D1FFE70120109067E0DB
:10478000109898B3FFE713981199405C303803F004
:104790001BFE0A900B91109803F016FE02460B4682
:1047A00049F69A10C9F6991049F69911C3F6B971EC
:1047B00002F0A6FE089009910F9804F06DF9089A8E
:1047C000099B84460A98CDF830C08C460B99CDF8E9
:1047D00034C003F04DFE0C9A0D9B03F0DFFB03F099
:1047E000ABFB0F9010980130109030E013981199A6
:1047F0000191405C303803F0E7FD024601980492D5
:1048000005910E99C043084403F0DEFD02460B46B5
:1048100000200021C4F2240102F072FE02900391F4
:104820000F9804F039F9029A039B84460498CDF856
:1048300018C08C460599CDF81CC003F019FE069AE5
:10484000079B03F0ABFB03F077FB0F90FFE7FFE75D
:10485000FFE711980130119084E70F9812990860D2
:1048600014B080BD7047000082B00190019840F202
:10487000F001C2F200010968C90844F6D352C1F23E
:104880006202A1FB0221890948430090FFE700BFB3
:10489000FFE70098411E00910028F8D1FFE702B021
:1048A000704700007047000080B582B0009000980B
:1048B0000138B0F1807F03D3FFE70120019019E0B8
:1048C000009801384EF21401CEF2000108604FF05A
:1048D000FF300F2100F068FF4EF21801CEF2000108
:1048E000002008604EF21002CEF200020721116093
:1048F0000190FFE7019802B080BD000080B5FCF791
:10490000E3FE80BD80B590B006A800902821FBF79B
:104910009CFC009800230593049303930293019356
:10492000012206924FF48031079108930A920222E5
:104930000D920E914FF4E0110F91FDF731F918B17E
:10494000FFE7FBF729FDFFE70F200190022102910D
:10495000002003904FF480620492059001A8FCF7B8
:104960006BFF18B1FFE7FBF717FDFFE710B080BD45
:104970007047000080B540F2A030C2F20000FEF7A0
:10498000F7F880BD80B540F2E830C2F20000FEF7D3
:10499000EFF880BD80B540F23040C2F20000FEF773
:1049A000E7F880BD83B00290019102980068009002
:1049B000029842F60041C4F20101884225D0FFE787
:1049C000029843F20041C4F2010188421DD0FFE782
:1049D0000298B0F1804F18D0FFE7029840F20041F2
:1049E000C4F20001884210D0FFE7029840F60001AF
:1049F000C4F20001884208D0FFE7029840F6004167
:104A0000C4F2000188420AD1FFE7009820F070004C
:104A1000009001984168009808430090FFE70298D1
:104A200042F60041C4F20101884225D0FFE7029816
:104A300043F20041C4F2010188421DD0FFE7029811
:104A4000B0F1804F18D0FFE7029840F20041C4F265
:104A50000001884210D0FFE7029840F60001C4F23E
:104A60000001884208D0FFE7029840F60041C4F2F6
:104A7000000188420AD1FFE7009820F440700090BE
:104A80000198C168009808430090FFE7009820F063
:104A900080000199496908430090009802990860D4
:104AA000019880680299C86201980068029988623A
:104AB000029842F60041C4F20101884208D0FFE7A3
:104AC000029843F20041C4F20101884205D1FFE798
:104AD0000198006902990863FFE702990120486183
:104AE00003B0704784B0039002910192029800F0E5
:104AF0001F01012088400090009A0399086A9043A2
:104B000008620198029901F01F0100FA01F203996D
:104B1000086A1043086204B07047000085B0049032
:104B2000039102920193049880680090009820F409
:104B30007F40009003980299019A41EA02210143C3
:104B400000980843009000980499886005B0704769
:104B500083B002900191029880680090009820F044
:104B60007000009001980099084340F00700009001
:104B700000980299886003B07047000085B00490E7
:104B800003910498006A01900499086A20F00100DA
:104B90000862049840680090049880690290029826
:104BA00020F070000290029820F003000290039819
:104BB0000168029808430290019820F002000190D9
:104BC00003988168019808430190049842F60041D7
:104BD000C4F20101884208D0FFE7049843F2004183
:104BE000C4F2010188420ED1FFE7019820F00800CD
:104BF00001900398C168019808430190019820F042
:104C000004000190FFE7049842F60041C4F201015C
:104C1000884208D0FFE7049843F20041C4F2010142
:104C2000884213D1FFE7009820F48070009000982C
:104C300020F40070009003984169009808430090A8
:104C400003988169009808430090FFE70098049951
:104C50004860029804998861039840680499486301
:104C600001980499086205B07047000085B004906F
:104C700003910498006A01900499086A20F01000DA
:104C80000862049840680090049880690290029835
:104C900020F4E0400290029820F4407002900398C3
:104CA0000168029840EA01200290019820F020005B
:104CB000019003988168019840EA011001900498DE
:104CC00042F60041C4F20101884208D0FFE704988F
:104CD00043F20041C4F2010188420FD1FFE701987D
:104CE00020F0800001900398C168019840EA01100B
:104CF0000190019820F040000190FFE7049842F6EF
:104D00000041C4F20101884208D0FFE7049843F251
:104D10000041C4F20101884215D1FFE7009820F458
:104D200080600090009820F4006000900398416932
:104D3000009840EA8100009003988169009840EA59
:104D400081000090FFE70098049948600298049958
:104D500088610398406804998863019804990862FF
:104D600005B0704785B0049003910498006A0190E3
:104D70000499086A20F480700862049840680090E2
:104D80000498C0690290029820F070000290029886
:104D900020F00300029003980168029808430290F3
:104DA000019820F40070019003988168019840EA0E
:104DB00001200190049842F60041C4F201018842AA
:104DC00008D0FFE7049843F20041C4F20101884291
:104DD0000FD1FFE7019820F4006001900398C168AB
:104DE000019840EA01200190019820F48060019030
:104DF000FFE7049842F60041C4F20101884208D05E
:104E0000FFE7049843F20041C4F20101884215D142
:104E1000FFE7009820F480500090009820F40050A4
:104E2000009003984169009840EA011000900398AF
:104E30008169009840EA01100090FFE7009804990A
:104E4000486002980499C861039840680499C8634F
:104E500001980499086205B07047000085B004907D
:104E600003910498006A01900499086A20F4805024
:104E700008620498406800900498C0690290029803
:104E800020F4E0400290029820F4407002900398D1
:104E90000168029840EA01200290019820F4005035
:104EA000019003988168019840EA013001900498CC
:104EB00042F60041C4F20101884208D0FFE704989D
:104EC00043F20041C4F2010188420BD1FFE7009890
:104ED00020F48040009003984169009840EA8110D6
:104EE0000090FFE700980499486002980499C8610F
:104EF000039840680499086401980499086205B011
:104F00007047000085B00490039102920498006AF3
:104F100000900499086A20F00100086204988069F2
:104F20000190019820F0F00001900299019840EA68
:104F300001100190009820F00A0000900399009859
:104F400008430090019804998861009804990862C8
:104F500005B0704785B00490039102920498006AEE
:104F600000900499086A20F0100008620498806993
:104F70000190019820F4704001900299019840EA54
:104F800001300190009820F0A00000900399009853
:104F900040EA0110009001980499886100980499F2
:104FA000086205B07047000080B540F29850C2F228
:104FB0000000FEF709FA80BD80B582B0019001982B
:104FC000406A009000990020C8850099C884009824
:104FD000FEF7F6F902B080BD80B584B003900020E2
:104FE00002900398406A0190019800684069C0B23D
:104FF000C0090290019890F8410021280AD1FFE7EA
:10500000029838B1FFE701990020C884019800F0A8
:1050100013F9FFE7019800684069C0F3801002901F
:10502000019890F8420022280AD1FFE7029838B18F
:10503000FFE701990020C885019800F09FF8FFE77D
:105040000199486C40F0100048640198FEF7B8F9E7
:1050500004B080BD80B586B005900598406A049084
:10506000059800680068800600285AD4FFE7049974
:105070000020C885FFE7FFE70498006850E8030FA9
:1050800020F480700390FFE703990498026842E8D7
:1050900003100028F0D1FFE7FFE7FFE7FFE70498E0
:1050A000006850E8050F20F001000290FFE7029928
:1050B0000498026842E805100028F0D1FFE7FFE7F6
:1050C000FFE7FFE70498006850E8050F20F0400074
:1050D0000190FFE701990498026842E80510002852
:1050E000F0D1FFE7FFE70499202081F842000498FF
:1050F000006B012814D1FFE7FFE7FFE70498006881
:1051000050E8030F20F010000090FFE7009904988A
:10511000026842E803100028F0D1FFE7FFE7FFE74D
:10512000FFE70499002048630498006B012805D12B
:10513000FFE70498818DFEF7D7F803E00498FEF7A7
:105140005FFDFFE706B080BD80B582B00190019899
:10515000406A00900099012048630098006B012884
:1051600006D1FFE70098818D4908FEF7BDF803E0FE
:105170000098FEF777FDFFE702B080BD84B0039092
:10518000FFE7FFE70398006850E8030F20F49070F2
:105190000290FFE702990398026842E80310002892
:1051A000F0D1FFE7FFE7FFE7FFE70398006850E86B
:1051B000050F20F001000190FFE7019903980268B4
:1051C00042E805100028F0D1FFE7FFE70398006BE5
:1051D000012814D1FFE7FFE7FFE70398006850E8D4
:1051E000030F20F010000090FFE700990398026879
:1051F00042E803100028F0D1FFE7FFE7FFE703993B
:10520000202081F8420003990020086304B0704711
:1052100080B582B0019001980168C86820F0400014
:10522000C8600199202081F841000198FEF71EFD19
:10523000002002B080BD000082B00190FFE7FFE7D0
:105240000198006850E8030F20F0C0000090FFE7CD
:1052500000990198026842E803100028F0D1FFE7A6
:10526000FFE70199202081F8410002B0704700005B
:1052700080B586B00490049890F84200222840F04F
:10528000A480FFE704988068B0F5805F15D1FFE740
:105290000498006988B9FFE7002003900498806AA9
:1052A00002900498006840686FF35F2002990880BC
:1052B0000499886A0230886225E00498806A039025
:1052C0000020029004988068B0F5805F08D0FFE766
:1052D0000498806850B9FFE70498006930B9FFE787
:1052E0000498006840680399087007E00498006813
:1052F000406800F07F0003990870FFE70499886A0E
:1053000001308862FFE70499C88D0138C885000420
:10531000002856D1FFE704980168C86820F02000F3
:10532000C86004980168C86820F48070C860049858
:105330000168486920F0010048610499202081F843
:1053400042000499002048630498006B012830D182
:10535000FFE7049900200863FFE7FFE7049800686F
:1053600050E8030F20F010000190FFE70199049826
:10537000026842E803100028F0D1FFE7FFE7049835
:1053800000680068C00600280ED5FFE7FFE7002090
:1053900000900498006800680090049800684068D5
:1053A00000900098FFE7FFE70498818DFDF79CFFD0
:1053B00003E00498FEF724FCFFE700208DF81700B7
:1053C00007E000208DF8170003E002208DF8170099
:1053D000FFE79DF8170006B080BD000080B584B0DF
:1053E000039003980068006920F44050039A116804
:1053F000D26810430861039988680A6949691043B3
:105400000843029003980068C06841F20C61884329
:105410000299084303990968C860039800684069C5
:1054200020F44070039A1168926910434861039810
:10543000006843F60001C4F20101884204D1FFE78D
:10544000FCF73EFB019003E0FCF728FB0190FFE72F
:10545000019819214843039A116852689200B0FBE1
:10546000F2FC48F21F52C5F2EB12ACFB02304309CA
:10547000642003FB10CC322000EB0C10A0FB0202D6
:10548000F02000EA521000EB0310C2F34312104464
:10549000886004B080BD000080B588B00790069198
:1054A000ADF81620069807998862BDF8160007998E
:1054B0008885079900204864079A222182F84210C3
:1054C0000799CA6B45F25501C0F600019162079930
:1054D000CA6B45F24911C0F60001D1620799CA6B47
:1054E00044F6D971C0F6000111630799C96B48638E
:1054F00006A8049007980168C06B0431049A1268EA
:10550000BDF81630FBF7D6FCFFE7002003900798A4
:10551000006800680390079800684068039003984B
:10552000FFE707980069A0B1FFE7FFE7FFE70798EB
:10553000006850E8030F40F480700290FFE7029982
:105540000798026842E803100028F0D1FFE7FFE760
:10555000FFE7FFE7FFE70798006850E8050F40F016
:1055600001000190FFE701990798026842E80510E1
:105570000028F0D1FFE7FFE7FFE7FFE707980068A3
:1055800050E8050F40F040000090FFE700990798B1
:10559000026842E805100028F0D1FFE7FFE700208D
:1055A00008B080BD83B002900191ADF8022001984F
:1055B00002998862BDF8020002998885BDF8020050
:1055C0000299C8850299002048640299222081F836
:1055D00042000298006938B1FFE702980168C86884
:1055E00040F48070C860FFE702980168486940F0A5
:1055F0000100486102980168C86840F02000C86056
:10560000002003B07047000083B00190019890F82B
:10561000410021283AD1FFE701988068B0F5805F0A
:1056200013D1FFE70198006978B9FFE70198006A94
:105630000090009800886FF35F2001990968486026
:105640000199086A0230086208E0019A106A411C58
:1056500011620078019909684860FFE70199C88CD8
:105660000138C884000468B9FFE701980168C86878
:1056700020F08000C86001980168C86840F04000D0
:10568000C860FFE700208DF80B0003E002208DF8D2
:105690000B00FFE79DF80B0003B0704780B586B0A4
:1056A0000020059040F2C040C2F20000006800688F
:1056B000C0F300100590059888B3FFE7FFE70020CE
:1056C000039040F2C040C2F20000016809680391F3
:1056D0000068406803900398FFE740F2C040C2F2C0
:1056E0000000016809680491016849680491FDF7A8
:1056F00001FE40F2E810C2F2000000684068049029
:105700000498C0F1210040F27811C2F20001029128
:105710004870FEF70FFB029901200870FFE740F286
:105720007810C2F20000C11C40F2C040C2F200007A
:1057300001902122FEF70CFA0198FDF745FE06B014
:1057400080BD000080B540F20850C2F20000FDF7B5
:105750003BFE80BD80B540F25050C2F20000FDF724
:1057600033FE80BDFFE7FEE781B08DF803009DF9B1
:10577000030000280ED4FFE79DF9031001F01F027B
:10578000012090404A094EF20011CEF2000141F88A
:105790002200FFE701B070474EF60C50CEF2000039
:1057A0000068C0F30220704782B08DF807000091B6
:1057B0009DF9070000280AD4FFE7009800019DF931
:1057C00007104EF20042CEF2000288540BE000981F
:1057D00000019DF8071001F00F014EF61452CEF2B1
:1057E00000028854FFE702B07047000083B00290C7
:1057F000029800F0070000904EF60C51CEF2000126
:105800000868019001984FF6FF021040019001983E
:10581000009A40EA02200022C0F2FA52104301909E
:105820000198086003B0704780B588B000210791E7
:10583000069140F26C60C2F20000006803F0BAF911
:10584000002850D1FFE740F26C60C2F200000390E4
:1058500001680020C4F28C2003F040FC0021C4F257
:105860003431049103F0DCF90021C4F2682103F023
:1058700069FB0021C4F2F62103F03AF901460398CE
:10588000079141680020C4F2A00003F027FC0499AE
:1058900003F0C6F90021C4F2942103F053FB002168
:1058A000C4F2093103F024F9069040F2F400C2F288
:1058B0000000016842680798EC463C230593CCF849
:1058C0000030822301F0BAF8059B40F2FC00C2F2DE
:1058D0000000016842680698EC46CCF80030872347
:1058E00001F0ACF81FE040F2F400C2F200000168E1
:1058F00042686B463C20029018600020C4F2BA2037
:10590000822301F09BF8029840F2FC02C2F20002EE
:10591000116852686B4618600020C4F2C8208723C3
:1059200001F08CF8FFE708B080BD000080B586B0BC
:1059300040F25460C2F2000000690021C4F202315A
:1059400003F054F948B9FFE740F25461C2F2000194
:105950000020C4F202300861FFE740F25460C2F256
:10596000000040690021C4F2073103F03FF948B953
:10597000FFE740F25461C2F200010020C4F2073098
:105980004861FFE740F25460C2F200004069002124
:10599000C4F2702103F023F948B9FFE740F25461E3
:1059A000C2F200010020C4F270204861FFE740F21B
:1059B0005460C2F2000000690021C4F2702103F0BB
:1059C0000EF948B9FFE740F25461C2F2000100202D
:1059D000C4F270200861FFE740F2C010C2F200007C
:1059E0000068032869DBFFE740F2C010C2F2000044
:1059F0000068042861DCFFE740F2F850C2F20000C2
:105A0000826A40F2E051C2F2000101910A60C06A6C
:105A1000486040F25460C2F20000049000680968D7
:105A200003F05CFB014640F2C860C2F200004FF098
:105A3000814202920023CCF280030393FEF71CF90B
:105A400001460498006903F049FB01990246049855
:105A500002614068496803F041FB029A039B0146DA
:105A600040F2F060C2F20000FEF706F90146049829
:105A7000406903F033FB01460498416140F2F402AF
:105A8000C2F20002116852680069EC463C2305939B
:105A9000CCF80030822300F0D1FF0498059B40F23F
:105AA000FC02C2F20002116852684069EC46CCF870
:105AB0000030872300F0C2FFFFE706B080BD000082
:105AC00080B5B6B035903598006840F25051C2F2BA
:105AD0000001884240F06E83FFE7FFE7359951F8F7
